:020000040000FA
:1000000000130020F50D000045470000E10D000041
:10001000E10D0000E10D0000E10D00000000000016
:100020000000000000000000000000005D0F000064
:10003000E10D000000000000FD0E0000E10D0000D9
:10004000F1100000F1100000F1100000F1100000AC
:10005000F1100000F1100000F1100000F11000009C
:10006000F1100000F1100000F1100000F11000008C
:10007000F1100000F1100000F1100000F11000007C
:10008000F1100000F1100000F1100000F11000006C
:10009000F1100000F1100000F1100000F11000005C
:1000A000F1100000F1100000F1100000F11000004C
:1000B000F1100000F1100000F1100000F11000003C
:1000C000F1100000F1100000F1100000F11000002C
:1000D000F1100000F1100000F110000053B94AB90E
:1000E000002908BF00281CBF4FF0FF314FF0FF3040
:1000F00000F00CB8ADF1080C6DE904CE00F008F882
:10010000DDF804E0DDE9022304B07047704700BF6A
:100110002DE9F04786468C460846089E15467446EB
:100120001946002B40F0C2808542B2FA82F245D9CE
:100130004AB1C2F1200300FA02FC2EFA03F3954003
:1001400043EA0C0C94404FEA154EA8B2BCFBFEF8F3
:10015000230C0EFB18CC08FB00F943EA0C4399452D
:1001600028D9EB1808F1FF3704D2994502D9A8F134
:1001700002072B44A3EB0903A4B2B3FBFEFC0EFB66
:100180001C330CFB00F044EA0344A04214D92C19A0
:100190000CF1FF3304D2A04202D9ACF102032C448B
:1001A000241A43EA07401EB1D44000233460736030
:1001B000BDE8F0874746DDE76346F1E792BB431BA6
:1001C00001214FEA154EAFB2B3FBFEFC200C0EFB33
:1001D0001C330CFB07F840EA0343984562D9EB183F
:1001E0000CF1FF3004D2984502D9ACF102002B4447
:1001F000A3EB0803A4B2B3FBFEFC0EFB1C330CFB09
:1002000007F744EA0344A7424ED92C190CF1FF33F7
:1002100004D2A74202D9ACF102032C44E41B43EA06
:100220000040C0E7C2F1200320FA03F1954090405E
:100230002EFA03F303434FEA154EAFB2B1FBFEFCB7
:100240000EFB1C10190C0CFB07F841EA0041884515
:1002500004FA02F422D969180CF1FF3004D288455F
:1002600002D9ACF102002944A1EB08019BB2B1FB19
:10027000FEFC0EFB1C110CFB07F743EA01439F42F7
:100280000ED9EB180CF1FF3104D29F4202D9ACF128
:1002900002012B44DB1B41EA004192E76046E3E7A1
:1002A0006146F7E76046A3E76346B7E7834206D9AE
:1002B00016B9002108467BE7C6E900E0F9E7B3FA82
:1002C00083F78FB9834201D3724508D8BEEB02048D
:1002D00060EB030301209C461EB9002168E7384605
:1002E000FAE7C6E9004CF8E7C7F1200CBB4022FA58
:1002F0000CF41C432EFA0CF120FA0CF3B840014325
:100300004FEA14490EFA07F5B3FBF9F81FFA84FE19
:1003100009FB18300B0C08FB0EFA43EA00439A4520
:1003200002FA07F240D9E31808F1FF3004D29A45E7
:1003300002D9A8F102002344A3EB0A0389B2B3FB5C
:10034000F9F809FB183308FB0EFE41EA03418E451C
:100350002CD9611808F1FF3304D28E4502D9A8F1D7
:100360000203214443EA0040A0FB0298A1EB0E01E6
:100370004145CE46434602D306D14D4504D2B9EBA2
:10038000020E68EB04030138002EA6D0B5EB0E0276
:1003900061EB030101FA0CFC22FA07F34CEA0303B8
:1003A000F940C6E9003198E74046C5E74346D9E73A
:1003B0000B7813B9014804F0CBB87047B86500005A
:1003C000F0B53E483E4D89B0492104F0A6F93D4BB9
:1003D0003D481A68492104F0A0F93C48442104F042
:1003E0009CF93B48572104F098F93A48452104F01C
:1003F00094F9394A3948492104F08FF938490D22D6
:10040000032000F0C9F9286805F0E6FC40B1354E3C
:10041000304605F0E1FC38B93168334804F098F80B
:100420000024204609B0F0BD286883681B68002BB3
:1004300040D02E490022984704460028F1D1286870
:1004400083682B49DF680A226423B847012303939A
:1004500001AB0593032306930723ADF80040ADF8E5
:100460000440CDF808D08DF810408DF81C309DF870
:100470001C30B26843F002038DF81C3094682023CE
:10048000022202A93046A04728B19DF80020194851
:10049000202104F05DF82868836817495C682722EA
:1004A0004FF0FF33A04704460028BAD1134804F0A8
:1004B0004FF8B5E76FF05704B3E700BFC165000020
:1004C0000000002004000020E3650000F465000047
:1004D000166600003B6600005E6600006B6600006A
:1004E0000F0100205062000073660000B10300009D
:1004F000E80400208E660000E8000020C7660000C7
:10050000014B1B68184700BF08000020014B186012
:10051000704700BF0800002030B585B004460D4686
:1005200010220021684605F0CAFD02238DF8023032
:100530002A46044B01932146684603F0C9FC05B0E6
:1005400030BD00BF0105000080B505460E461746C8
:10055000984603F09BF9034605F01CFEDFF818905F
:10056000044649F80030424630463946A84754F818
:10057000090000F0ADFC00BF080000002DE9F047C5
:10058000058B04462807904611D4022905F007057B
:1005900040F0CC80204603F0E8FF78B10138218B91
:1005A000042811D8DFE800F0C2106D8595000129FC
:1005B0000CBF45F0100545F02005258388F3118810
:1005C000BFF36F8FBDE8F08701F0070AAA4500F07E
:1005D000A5800027B9463E46A368002B00F0BC80EA
:1005E00041F00801218388F31188BFF36F8FA16860
:1005F000002900F0BA800D68002900F0B680D1F81B
:100600000480334652462046C047002D76D02B68E2
:1006100029461D46F0E701F007035A1F012A1BD89F
:10062000002221F00701062B276889B2C4E90022C5
:1006300009D13B4603E0628B013262831B68002BC9
:10064000F9D141F002012183204603F08EFF0028FA
:100650007AD041F0200176E0042B0AD121F0070185
:1006600089B22183204603F080FF10B141F02001C0
:100670002183218B01F0070AAA454FD00027B946F4
:10068000AAE7236921F0070141F00601062DD3F8FE
:10069000009021832DD1B9F1000F3FD041F0080126
:1006A000218388F31188BFF36F8F3A492046C847EA
:1006B00029E021F00701236941F0040189B2042DEA
:1006C000D3F804902183E6D000273E464FF0040A79
:1006D00082E721F00701236941F0050189B2052D68
:1006E000D3F808902183D6D000273E464FF0050A64
:1006F00072E700273E464FF0060A6DE72B4687E774
:10070000B9F1000FD1D1EFF31188202383F31288C0
:10071000BFF36F8F238B23F008032383258BEA0617
:100720002ED525F01003238305F007056669218B7C
:10073000002EBFF670AF00232768C4E9003321F014
:10074000070141F001012183218B01F0070AAA452D
:100750004FF000097FF440AF002F9CD041F008011A
:10076000218388F31188BFF36F8F002FC8D03D68B5
:10077000394633465246204603F023FF2F46F4E71E
:10078000AB067FF51BAF25F02003238305F007059B
:1007900000E700BFEF4500002DE9F84FDFF8989023
:1007A00080460F4616461446BD192D1B0CB9BDE8F0
:1007B000F88F08F1FF33032B98BF19F803101F4877
:1007C000DFF87CA088BF3F2103F0C2FE4FF0000B92
:1007D0005C4528D915F80B10504603F0B9FE0BF113
:1007E000010BBBF1080FF3D11648DFF85CB003F042
:1007F000AFFE4FF0000A544519D915F80A10A1F1BF
:1008000020025F2A28BF2E21584603F0A1FE0AF1DC
:10081000010ABAF1080FEED10C4803F099FE072C3B
:10082000C5D9083CC0E70A4803F092FED7E709485B
:1008300003F08EFEEBE700BF10670000FC660000CF
:10084000016700000B6700000D670000166E0000D6
:100850000767000009670000014B03600020704734
:100860007864000008B5044803F072FEBDE8084053
:10087000024803F06DBE00BF146700004967000026
:1008800008B50348034A0021121A03F053FF08BDBC
:1008900028010020080500200748084A084908B533
:1008A000121A03F049FF0748074A0849BDE8084003
:1008B000121A03F041BF00BF0000002024010020F5
:1008C000986E00000000002000000020986E0000DC
:1008D00037B505460C46C9B18B680093D1E90023B2
:1008E0001248452103F019FF63690093D4E90323FB
:1008F0000F48452103F011FFE2690E48452103F03E
:100900000CFFA2690C48452103F007FF012D06D119
:10091000EFF305820948103A452103F0FEFE214617
:10092000284603B0BDE8304002F084BB7767000082
:10093000AB670000DF670000F36700002668000077
:1009400030BFFFF7FDBF00BF2DE9F0410B4EDFF8D0
:10095000308006EB0807CC1B054632460949204685
:1009600005F085FBA01942460021083C05F0A7FBD5
:100970002C6707F10800BDE8F08100BF000000000F
:10098000040000006C640000054B5A699B689A42A1
:100990001FBF044A536843F080535360704700BF41
:1009A000BC04002000ED00E02DE9F843364D804600
:1009B000894636484521174603F0AFFEAB6ADE068E
:1009C00026D53348452103F0A8FE1124AB6A1D0744
:1009D00004D53048452103F0A0FE12242A4DAB6A0D
:1009E000980717D545212C4803F097FE6E6BAB6A2C
:1009F000190645D529483246452103F08EFEB9F146
:100A0000000F03D0AB6A23F08003AB62132403E032
:100A10001024DBE76FF015061B4DAB6ADA0704D52F
:100A20001F48452103F079FE1424AB6A9B0604D5C8
:100A30001C48452103F071FE1524134B9A6AD50614
:100A400002D49A6A90070AD55B68190507D5414612
:100A5000304600F007FB10B180F3098802240A4BEE
:100A60009A6A920642BF5A6A22F400525A629A6AFD
:100A700042F0FF029A6200233B702046BDE8F883F3
:100A80006FF01506C2E700BF00ED00E03E68000011
:100A90005968000091680000A9680000C66800005D
:100AA000E16800000569000010B5204C2048452190
:100AB00003F033FEA36A990136D51E48452103F0A1
:100AC0002CFE1E20A36ADA0104D51B48452103F041
:100AD00024FE1F20154CA36A1B0304D5174845218B
:100AE00003F01BFE2120A36A590304D514484521B5
:100AF00003F013FE22200D4CA36A9A0304D511487B
:100B0000452103F00AFE2320A36ADB0304D50E4827
:100B1000452103F002FE2420044A936A6FEA03434E
:100B20006FEA1343936210BD1D20CBE700ED00E098
:100B300039690000566900006E6900008D69000087
:100B4000B0690000DA690000F969000070B5284C4E
:100B500006460D462748452103F0DFFDA36AD90468
:100B60003BD52548452103F0D8FD1720A36A1A0577
:100B700004D52248452103F0D0FD18201C4CA36A5F
:100B80009B0511D51E48452103F0C7FDA26BA36A42
:100B9000180408D51B48452103F0BFFD1EB1A36A08
:100BA00023F40043A3621920114CA36A590504D50C
:100BB0001548452103F0B1FD1A20A36ADA050ED5C8
:100BC0001248452103F0A9FD1B20094A936A43F40A
:100BD0007F43936200232B7070BD1620C6E7A36A83
:100BE0009B04F2D50A48452103F097FD1C20ECE751
:100BF00000ED00E0296A0000446A000091680000EE
:100C00005A6A0000786A0000926A0000B26A000026
:100C1000056900002DE9F041604B5F688AB0044629
:100C2000C7F30806002585F31188BFF36F8F02F024
:100C30007F43B3F17F4F07D102F00C03082B14D18F
:100C40005748452103F069FD00252C464FF0000868
:100C5000F31E8DF80780092B00F28D80DFE803F08A
:100C60000A80847C8B8B8B8B8B8810074CBF0C4647
:100C70000125EBE74B48494E452103F04EFD8DF829
:100C80000780F36A9A0705D54748452103F045FDDB
:100C9000002333E0F36A002B02DA44484521F5E7EC
:100CA000F36A5B00F4D54248452103F036FD7369D1
:100CB000A26943F480737361BFF34F8FBFF36F8FEB
:100CC000736932F8022C23F480737361BFF34F8F82
:100CD000BFF36F8F4DF602739A4209D0B36ADBB24D
:100CE00063B30DF1070201212046FFF75DFE35E0F9
:100CF00022683048452103F010FD23689DF8072045
:100D0000CAB902AE04F1200720686168324603C206
:100D10000834BC421646F7D1099A002D38D0C2F3E8
:100D2000080121B96FEA52226FEA4222099202A910
:100D30001846FFF7CDFD0AB0BDE8F081B36A13F4A1
:100D40007F4F05D00DF107010120FFF7FFFE05E001
:100D5000B36AB3F5803F9BD3FFF7A6FE0346CDE70A
:100D60000DF107020021BFE70DF107010020ECE7BC
:100D7000114845218AE71149114A124817F4F87FB2
:100D800008BF0A46A6F11003452103F0C6FC7FE721
:100D900022F4FF7222F00102C8E700BF00ED00E07C
:100DA000FD6A00002D6B0000496B00006F6B0000B6
:100DB000826B0000A66B0000C76B0000CF6A0000CA
:100DC000E46A0000F06B0000044B5A6942F0100224
:100DD0005A615A6922F008025A61704700ED00E03A
:100DE000EFF30880EFF3098101B57246FFF712FFB8
:100DF00001BD00BF002080F31488BFF36F8F0F4840
:100E000080F3088801F006FB00200D490860BFF35D
:100E10004F8F00F02BF8202080F3118809484FF401
:100E20000461401880F30988EFF31480022108431D
:100E300080F31488BFF36F8F00F0E4F800130020F4
:100E400094ED00E0400500200749D1F890200023F0
:100E5000C2F307221846934200DB7047C1F898306E
:100E6000C1F8A0000133F6E700ED00E008B572B666
:100E7000002383F31388FFF7E7FF144B4FF0FF3293
:100E8000C3F88020C3F88420C3F88820C3F88C20DE
:100E9000C3F89020C3F89420C3F89820C3F89C208E
:100EA000C3F88021C3F88421C3F88821C3F88C21BA
:100EB000C3F89021C3F89421C3F89821C3F89C216A
:100EC00062B6BFF34F8FBFF36F8F08BD00E100E044
:100ED000084B9B6883420BD1EFF3058343B1064B6C
:100EE0005A6842F080525A605A6A22F400425A62AA
:100EF00002F0D2BCBC04002000ED00E014498A6876
:100F00004FF030001044EFF3098C80E8F01F2020F0
:100F100080F31288BFF36F8F0E4F4FF000664A695F
:100F20008A603E60106F0C4C2060506F0023536746
:100F300080F3118804B5104600F0F8F8BDE80440CD
:100F400002F1300090E8F01F8CF309887047000030
:100F5000BC04002004ED00E0B80300201EF0040FE4
:100F60000CBFEFF30880EFF30980816911F8021CD0
:100F70000229FFD001B5724603F0E0FB01BD00BFBE
:100F800040B2002807DB044A4109012300F01F009A
:100F9000834042F82130704700E100E0054B4209F0
:100FA00000F01F0053F82220012303FA00F0104044
:100FB000704700BF00E100E040B20028A8BF00F188
:100FC000604001F10101B8BF064B4FEA4111ACBFCF
:100FD00000F5614000F00F00C9B2B4BF195480F8A9
:100FE0000013704714ED00E0044B054A23F07F0323
:100FF0009360BFF34F8FBFF36F8F70470000000007
:1010000000ED00E008B5FFF7EFFF074AD2F888309F
:1010100023F47003C2F88830FFF732FCFFF73CFC82
:1010200000F05AF802F004F900ED00E042F8203C2C
:10103000009B42F81C3C0A49019B42F8183C029B69
:1010400042F8143C21F001014FF0807342F8043C57
:1010500042F8081C0023203A02654367704700BF2E
:1010600049050000094A0346906870B113F1160F54
:10107000006E05D0A0F140029A4205D8834203D207
:10108000814228BF0020704700207047BC04002028
:1010900008B515460B4A0C4B9060026F1A600E465D
:1010A00000F044F82C4686F309880020034B98474B
:1010B0002046002100220023014C20476147000008
:1010C00049050000BC040020B8030020014B102299
:1010D0001A61704700ED00E0044800232021C21887
:1010E0000133272B82F80013F9D1704700E100E0AB
:1010F00008B5EFF30583064A103B02EBC30152F833
:10110000330049688847BDE80840FFF73DBC00BF91
:1011100070620000024B034A0348012100F084B8CA
:10112000000001200000002078640000026E054BE2
:10113000403A1A60044A4021C3E9011218460121CD
:1011400000F07CB8BC03002000000B1508B5104A65
:10115000D2F89030C3F30723013B984207D90246E7
:1011600045210C4803F0D9FA6FF0150008BDC2F80C
:1011700098000B6823F01F03034343F01003C2F8E9
:101180009C308B6843F00103C2F8A030EEE700BF4B
:1011900000ED00E00C6C0000F0B50F4685B01C4679
:1011A00005460026BE420CDA686808B38CB1431EBF
:1011B000184209D010483246452103F0AEFA6FF0CC
:1011C0001502104605B0F0BD1F28F3D929680B425F
:1011D000F0D12B68019303F0E6FAAB6801A9034351
:1011E000D0B20393FFF7B2FF10F1160FE7D0421C05
:1011F00001360C35D6E700BF376C0000044B0522E2
:10120000C3F89420BFF34F8FBFF36F8F704700BFB9
:1012100000ED00E0BFF35F8F024B0022C3F8942083
:10122000704700BF00ED00E010B5034C01232278A9
:10123000FFF7B2FF207010BDF204002008B50B4A82
:1012400000231278FFF7A8FF10F1160F07D0084A05
:101250000021D2F89030C3F30723984200DB08BD89
:10126000C2F89800C2F8A0100130F2E7F2040020A2
:1012700000ED00E02DE9F04357485849D0F8903090
:101280000D68C3F307239D4285B000F2A180FFF7EC
:10129000C1FF49680022954201F10C011AD1504C5E
:1012A000504F25706846FFF7D7FADFF83C81DFF82A
:1012B0003C9106460025AE421FD1237846490020C6
:1012C000D1F89020C2F3072293427BDBFFF796FF11
:1012D00000204CE0C0F8982051F80C3C23F01F038C
:1012E000134343F01003C0F89C3051F8043C43F022
:1012F0000103C0F8A0300132CDE7009800EB0511E2
:101300004FEA051CCB683B40B3F5000F44D00AD828
:10131000B3F5001F2ED0B3F5800F34D0B3F5801F86
:1013200010D00135C7E7B3F1807F3ED0B3F1007F25
:10133000F7D150F80C3088684A6803F034FA40F46A
:10134000802009E050F80C3088684A6803F02BFAD6
:1013500040F0885040F43020039001A92078CDE976
:101360000123FFF7F3FE002828DA6FF0150005B01F
:10137000BDE8F08350F80C3088684A6803F013FA2F
:1013800040EA0800E8E750F80C3088684A6803F043
:101390000AFA40EA0900DFE750F80C3088684A682A
:1013A00003F001FA40F08270D6E750F80C308868FC
:1013B0004A6803F0F8F940F08870CDE723780133EC
:1013C0002370AEE7C1F89830C1F8A000013377E789
:1013D0004FF0FF30CBE700BF00ED00E08464000079
:1013E000F20400200000F0FF0000081100000206D7
:1013F00008B5024B1B689847002008BDC8030020B1
:10140000034B044A1860937843F0020393707047CB
:10141000C80300200C00002008B50649064821F04A
:101420000701C1F1005202F5803203F037F80020C5
:1014300008BD00BF47130020CC030020044A01234D
:10144000C2F840354FF080420020C2F8783570472E
:1014500000E0014048B1054B054A1B68B3FBF2F3BD
:101460005843044B43F0010318477047D400002051
:1014700040420F007064000008B50448044A3F234E
:10148000C0E9002301F002F9002008BDD8030020C4
:10149000FFFF0F00084B70B5C31A0D4607499B109C
:1014A000044659430648402203F09BF92B46014667
:1014B0002046BDE870401847F4030020B76DDBB646
:1014C000F061000073B50C4C0C4A4023041B0093E0
:1014D0000D460B460A49A41061430646094803F02D
:1014E000ABF9011E05DA30462B4602B0BDE870406C
:1014F000184702B070BD00BFF4030020A1480000EF
:10150000B76DDBB6F06100000022F8B50121054699
:101510001046FFF751FD104801F0E0F80446B8B955
:1015200001F0FCF82F690D49384603F06DF8031EF1
:1015300009DB01263E642D69084905F11C0003F012
:1015400063F8031E02DA1C462046F8BDEE64FBE792
:101550006FF00404F8E700BFAD160000A4640000BB
:101560001FB500220123CDE90223094ACDF800D09E
:101570006B46CDF804D003F08CF9002805DB4FF45E
:1015800080420023684601F0EDFE05B05DF804FBE3
:10159000B348000010B5064C23782BB94FF4A57062
:1015A00004F0FEFB01232370BDE8104001F06EB98A
:1015B000F304002010B5EFF31184202383F3128885
:1015C000BFF36F8F074A136823F00201DB07116036
:1015D00002D4012003F0D5FF84F31188BFF36F8F8D
:1015E00010BD00BF4404002030B4104B0C2202FB9D
:1015F000003301460020D3E90E529863EFF31180C7
:10160000202484F31288BFF36F8F1C6C04F0C00495
:1016100044F002041C6480F31188BFF36F8F1DB186
:101620002B46034830BC184730BC7047F4030020F9
:10163000F061000010B4EFF31182202383F31288CD
:10164000BFF36F8F1748016841F002040460C807B8
:1016500007D482F31188BFF36F8F012010BC03F011
:1016600088BF4FF08041D1F80C04D1F80C14C907A1
:10167000EFD5EFF3118083F31288BFF36F8F0A4920
:101680000B6C03F0C00343F002030B6480F311887A
:10169000BFF36F8F82F31188BFF36F8F002010BCF0
:1016A000FFF7A2BF44040020F403002010B101287A
:1016B00004D07047034B1B6C5B0701D1FFF794BF4D
:1016C000704700BFF40300202DE9F0413849BFF313
:1016D0005B8F0746012251E8003F41E800200028C7
:1016E000F9D1BFF35B8F33B9324933484B60CB60DC
:1016F0008A6002F09CFF7B1E012B2BD8012F07D1A3
:101700004FF08043D3F81C3403F00303012B21D0A6
:1017100004F080FB0546F8B9284B1B78E3B14FF085
:1017200080430222C3F808230646DFF894804FF076
:101730008044D4F81824D4F81834D20315D503F013
:101740000303012B01D0012F0FD155B386F311886C
:10175000BFF36F8FBDE8F081EFF31186202383F391
:101760001288BFF36F8F0125DFE7ADB1304603F07C
:101770000BF8D4F81835002BDBD1D4F80421002A5B
:10178000D7D0C4F80431D4F804310123C4F8183593
:10179000C8F88031A360CCE70021212004F0D3FBFE
:1017A000E7E74FF080430222C3F80423D2E700BFEB
:1017B000F0030020E00300201004002003050020B7
:1017C00000E100E008B5074804F006FB38B1064820
:1017D000FFF716FE0448FEF799FE002008BD6FF0E3
:1017E0001200FBE730620000ED1700000A2838B550
:1017F000074D044604D1AB680D21DB6928469847A4
:10180000AB680348DB69E1B29847204638BD00BFAA
:1018100030620000430970B507D10B4B596821B104
:1018200001250C68094E854001B970BD8A682A40BF
:1018300002D04B68304698471CB1236821461C46AD
:10184000F2E72346FAE700BF4804002010620000D8
:1018500038B54568A86890B104F0E9F8014670B958
:10186000A86804F0C8F8044658B902460649A868B2
:1018700004F0B2F8224605210620FFF79DFB002068
:1018800038BD6FF00400FBE71518000038B50446BA
:1018900040682346826900F1080101F0EFF905462E
:1018A00020B122680248452102F037FF284638BDA2
:1018B000C76C000008B5CA074368006909D4C1F3C2
:1018C0004202012A08D0022A0ED00948452102F01E
:1018D00024FF6FF0150006E01B684FF0CC72C3F8D0
:1018E00024250160002008BD1B684FF0CD62F6E79B
:1018F000EC6C00002DE9F04186B00C4647689DF87D
:1019000034801546002112220DF106001E4604F017
:10191000D6FBBDF830208DF8052004F0010314F04B
:1019200008028DF804300296049508D00B48452132
:1019300002F0F3FE6FF0850006B0BDE8F081A1076C
:1019400005D4B8F1000F07D1002BF3D1202201A953
:10195000384601F01BFAEFE74022F8E7036D00007C
:101960002DE9F0435B4E5C4F00EB810140F2FF1527
:10197000814202D10020BDE8F083046814F4804F56
:10198000C4F3C32CC4F3080340F09080240E16F86F
:101990000CC0AB4208BF4FF0FF33192C00F2898016
:1019A000DFE804F00D13191C1F251C878787873675
:1019B00063878787878787878787667B7E81C2F86B
:1019C0000C355C1C5ED10430D2E7C2F814355C1CC7
:1019D000F9D000245FE0C2F80835F2E7C2F810350C
:1019E000F5E75C1CC2F80835EDD0002404E05C1C6F
:1019F000C2F80C35E7D001245FEA531E5CD14FF0EA
:101A000001084FF0A04E08FA03F9CEF80C950AE051
:101A1000C2F80835BCF1000FD9D15C1CD3D000242A
:101A2000A0464FF0060CD0F8009009F4004EBEF12D
:101A3000000F1CBF4FF00008012403F01F0E5B09CC
:101A400042D14FEA8E0E0EF1A04EC9F34129DEF8C5
:101A500000373B4043EA890343EA0C2343EA080387
:101A600043EA4403CEF80037ADE7C2F80C35D1E7BE
:101A7000C2F86035B3F1FF3F0468A4D0C4F300445A
:101A8000002CB8D05C091BD101244FF0A04E04FA01
:101A900003F8CEF80885A046C5E7C2F86435E9E743
:101AA000C2F86835E6E7C2F86C35E3E76FF0150079
:101AB00061E76FF085005EE70023C3F80C35FFDEB9
:101AC0000023C3F80835FAE70EF5E07E002353F84B
:101AD0002E30F4E72E6D0000F0F8FCFF2DE9F04108
:101AE0000022054601210220FFF766FA0220FFF7D7
:101AF00047FA6C680121E06803F002FA6B681A6823
:101B00002369C2F82435637D217D0B43C2F86C350F
:101B10002C692068A0B16B6838491E680022083023
:101B200004F07DFA2368DD632068354900226830BF
:101B300004F075FA2368C3F89C50324BC6F804339E
:101B40006F68D7E9004313F001033CD0D5F810804B
:101B500004F10C0108F11C0204F5907003F0F3FC91
:101B6000061E06DA2848452102F0D7FD3046BDE8BA
:101B7000F08198F81C0000F09DFD0823C4F80035A2
:101B80003B6AC4F844350023C4F848350123A360F8
:101B9000D4F85831002BFBD00023C4F800356B6813
:101BA000596811F004040CD1D868214603F0A8F953
:101BB0006B6821461D68D86803F0A2F90823C5F8B0
:101BC00000350026D2E70822C4F800253A6AC4F896
:101BD0004425C4F848350123A360D4F82031002BF4
:101BE000FBD00023C4F82031D4F820310123E36076
:101BF0004FF48073C4F80433CAE700BF37500000C5
:101C00008D54000014020A00366D00002DE9F843DF
:101C100004464568884604F0FDF86368A8B92E4A72
:101C2000127892B11F684FF020096426606803F0B3
:101C300057F900283ED1012003F048FC013EF5D1C0
:101C40000021212004F07FF9EFE721691F684FF0A0
:101C50002009EFF3118689F31288BFF36F8F606854
:101C600003F03EF908B30B6853B1D3F8A4203AB19E
:101C7000D3F8B420002A03DAD7F84C25C3F8B420EF
:101C80006B685B0744BF4FF48003C7F804332B6ACB
:101C900083F80080296A0122204603F092F986F336
:101CA0001188BFF36F8FBDE8F88386F31188BFF307
:101CB0006F8FCEE7EFF311810E4689F31288BFF3E1
:101CC0006F8F606803F00CF90028D9D181F3118877
:101CD000BFF36F8FB4E700BF030500202DE9F04F7D
:101CE0009946D0F804A00369DAF800401D6885B071
:101CF000064602939AF8083088461746002B40F0B3
:101D0000A88095F86130002B40F0A68095F86230ED
:101D100003F0FF01002B40F09F80B9F1FF3F66D038
:101D2000B9F1040F63DDDFF838E14E4A4FF40040AB
:101D30004FF0050C99FBFCFCCCFB00E10023704646
:101D4000FEF7CCF94FF0000BC5E915B0C5E91087D7
:101D5000C5E912BBE965C5F850B0DAF804205207AE
:101D600056D5EFF311822021039281F31288BFF33D
:101D70006F8F0221304603F013F9039A82F3118822
:101D8000BFF36F8FDAF80420530741D595F86060F0
:101D9000002E3DD0BE4228BF3E46DAF81C10324627
:101DA000404604F064F9BF1B2ED195F86020921BC9
:101DB000D2B285F86020DAF81C00811904F065F9C8
:101DC000029BBFF35B8F03F1180B5BE8003F43F00E
:101DD00004034BE80032002AF7D1BFF35B8F44F3D2
:101DE0000734002C06DA002005B0BDE8F08F002093
:101DF0000146A7E763091C4904F01F040122403390
:101E0000A24041F82320EEE7B9F1FF3F12D1B044E0
:101E10000023C4F83485C4F83875C4F81031D4F8F8
:101E20001021C4F84C31D4F84C31012385F86130CD
:101E30002360D8E7C4F808B1D4F80831D5E91623EF
:101E400000200021CDE9000105F1080002F008F8AA
:101E5000DDE76FF08500C7E76FF00F00C4E700BF54
:101E60003F420F0040420F0000E100E0F7B5064698
:101E700005691C46EFF31187202383F31288BFF313
:101E80006F8F2B68D3F8A4C0BCF1000F07D087F385
:101E90001188BFF36F8F6FF00F0003B0F0BDC3F870
:101EA000A4202B68C3F8A01001F06043B3F1005FD9
:101EB0002B6814D1C3F8A8102B68C3F8AC202946AE
:101EC000304603F097F887F31188BFF36F8F73687C
:101ED0001B7D012B01D1631C06D10020DDE7C3F877
:101EE000B0C002F0DEFFEAE70B480C4A2D6824EA96
:101EF000E4744FF4004600210023C4FB0601FEF702
:101F0000EDF8683502460B4600200021CDE90001BE
:101F1000284601F0A5FFE0E73F420F0040420F00D6
:101F200070B5012383400E4ABFF35B8FDC4352E858
:101F3000001F01EA040542E80056002EF7D1BFF366
:101F40005B8F4FF4803282400648C0F80823BFF30D
:101F50005F8FBFF36F8F0B4214BF0120002070BD55
:101F60005C0400200010014070B40E49D1E9003437
:101F7000D01AC31844F10004C2F30E06C1E90034BC
:101F8000A6F58053B3F5C04F09D2074B1B685A0C16
:101F9000DB039C19054B42F10005C3E9004570BC09
:101FA00001F05EBE08020020600400201002002044
:101FB00011B3BFF35B8F0123104A834052E800CF77
:101FC0004CEA030C42E800C10029F7D1BFF35B8F54
:101FD0000B4A4FF480338340C2F80433094BBFF3FC
:101FE0005B8F1B68BFF35B8FC340DB0742BF064BB1
:101FF0004FF40032C3F80021704700BF5C0400209A
:10200000001001405404002000E100E030B5144B02
:102010001868410CC003BFF35F8F124BD3F804352F
:1020200047F6FF7293420AD10F4AD2E90045844233
:1020300075EB010209D3C01841F1000130BD181839
:1020400041F10001B3F5006FF8D2074BD3E900234B
:10205000904271EB0303F1D210F50040ECE700BFB2
:102060006004002000100140100200202DE9F04F14
:1020700085B016461F469DF840A00446FFF750FF66
:102080000190FFF7C3FFB04271EB07035CD2301A37
:1020900044F2010367EB0101984271F1000156D24D
:1020A0003D4B03EB0413D3E902239F4208BF964242
:1020B00065D03A494FF4803804F1500508FA04F825
:1020C000AD002046C1F84883ADB203F0E2F9C6F393
:1020D0000E0B05F1804504F5A87305F588355846C3
:1020E0004FF003090293C0F30E03002B029A08BFBE
:1020F0000120C0F30E0341F82230C1F84483D1F827
:1021000004356FF0020CACEB030C6044C0F30E001E
:1021100043F6FD72904232D9286868B1D1F804358F
:102120000393A3EB0B00C0F30E00B0F5804F26D94C
:10213000204603F0AEF9039BBAF1000F07D109EB7B
:10214000030009F10109CEE7BAF1000F09D06FF0E1
:10215000150520460199FFF72BFF284605B0BDE87D
:10216000F08F01230E4ABFF35B8FA34052E8000FAC
:10217000184342E800010029F8D1BFF35B8F0649FC
:102180000E98230101EB0412C8500F9B5360C2E963
:1021900002670025DDE700BFE801002000100140D4
:1021A0005404002070B5294C294BC4F80833C4F8F6
:1021B0004833284B284A00254FF0FF304FF0FF31BD
:1021C0004FF48036C4F80855C3E90201C4F804632B
:1021D000C3E906014FF4003386B00121C4F804338B
:1021E0001120C2F880312A46FEF7E6FE1120FEF7E4
:1021F000C7FE1A4B01200322A06020601A60184B12
:10220000009343F6FF720023CDE90155FFF72EFF3F
:102210000220FFF759FA134A13491368134823F0B1
:102220000103136047F6FF73C4F844630DF117020E
:10223000C4F8403503F087F9002804DB9DF8170047
:1022400000F038FA284606B070BD00BF001001400B
:1022500001000F00E801002000E100E05C04002024
:10226000691F00005804002008100140401101407F
:102270002DE9F743374CD4F80433D90319D540235B
:102280000022990810290CD1D4F84031002B41D0FC
:102290000023C4F84031D4F840314FF48032442355
:1022A000EFE70433502BECD11AB12B4A13680133FA
:1022B0001360D4F804339A0329D5BFF35B8F274BFF
:1022C00053E8002F22F0020143E800100028F7D164
:1022D000BFF35B8F930702D4D4F84431BBB1002520
:1022E000C4F84451D4F84431FFF790FEEFF3118263
:1022F000202383F31288BFF36F8F194BD3E906674E
:10230000B042B94108D282F31188BFF36F8F03B096
:10231000BDE8F0834423B4E74FF0FF384FF0FF39B6
:10232000C3E90689D3E904101D614FF40033C4F8F2
:102330004833C4F84451D4F8443182F31188BFF3D0
:102340006F8F0029E3D0009032463B46012088473A
:10235000DDE700BF001001406004002054040020AD
:10236000E801002030B5431C85B043F6FF7223D04E
:102370009042A8BF104601280446B8BF0124FFF7C9
:1023800045FE0F4BD3E90013401AB0F5804F43F6DA
:10239000FF7513D22218AA4228BF2A4652184FF0BE
:1023A000000008490091CDE9010043F1000301203C
:1023B000FFF75CFE05B030BD1446E0E72A46EDE7C6
:1023C00008020020691F000008B5FFF71FFE024B3E
:1023D0001B68C01A08BD00BF080200204FF0704300
:1023E00093F8E02F062A09D1D3F8E83FC3F303138B
:1023F000033B042B02D8024AD05C70470020704790
:10240000876D0000024AD2F80034002BFBD07047E1
:1024100000E0014010B503F048F840B14FF08053A0
:102420008E4AD3F82433C3F30423C2F84035FFF7B0
:10243000D5FF10B18A4B8B4A5A6703F036F848B182
:102440004FF080534FF08042D3F84432C3F342330D
:10245000C2F83C35FFF7C2FF30B1834AD2F8FC30F6
:1024600023F08073C2F8FC3003F01FF840B14FF046
:1024700080430022C3F80C21C3F81021C3F838258B
:10248000FFF7ACFF20B14FF080430322C3F8A02533
:10249000FFF7A4FF60B1754B0522C3F81026012297
:1024A000C3F888260022C3F818263F22C3F8142652
:1024B0004FF08053D3F83021511C09BF4FF07043C7
:1024C000D3F8343193F8E02FD3F8E83F08BFC3F3D3
:1024D0000313062A4DD1033B042B03D8644AD35C73
:1024E000002B46D04FF08052624BD2F80414C3F850
:1024F0002015D2F80814C3F82415D2F80C14C3F828
:102500002815D2F81014C3F82C15D2F81414C3F8F7
:102510003015D2F81814C3F83415D2F81C14C3F8C7
:102520004015D2F82014C3F84415D2F82414C3F887
:102530004815D2F82814C3F84C15D2F82C14C3F857
:102540005015D2F83014C3F85415D2F83414C3F827
:102550006015D2F83814C3F86415D2F83C14C3F8E7
:102560006815D2F84014C3F86C15D2F84424C3F8A7
:10257000702502F09AFF48B14FF080534FF080422F
:10258000D3F8583203F04F03C2F8E43E02F08DFF57
:1025900048B14FF08043D3F80024D20744BF6FF016
:1025A0000102C3F800244FF08053D3F83021062AEB
:1025B00026D1D3F83431033B042B02D82E4AD35C06
:1025C00063B12E4AD2F83C3743F48063C2F83C37FB
:1025D0004FF08053D3F83031062B11D14FF0805398
:1025E000D3F83431033B042B02D8254AD35C3BB1EA
:1025F0004FF01023D3F808224FF08043C3F858253A
:102600004FF01023D3F80022002A03DBD3F8043262
:10261000002B22DA1B4901234FF01020C1F80435AA
:102620001524FFF7EFFEC0F80042FFF7EBFEC0F8FD
:102630000442FFF7E7FE0023C1F80435FFF7E2FE8E
:10264000BFF34F8F0849104BCA6802F4E06213438E
:10265000CB60BFF34F8F00BFFDE710BD00300140DE
:1026600000C007400DF0ADBA00ED00E000500040A2
:10267000826D000000C000407D6D00000010004031
:10268000786D000000E001400400FA05014B18607D
:10269000704700BF6404002010B5054B186814464D
:1026A00002F016FF0028A4BF2070002010BD00BF5C
:1026B00064040020024A01238340C2F804357047B5
:1026C00000F00140014B00201B68184768040020FF
:1026D000014B1B68184700BF6804002010B50C4C64
:1026E000237993B9012323710A4B2060002818BF76
:1026F000184600F069F850B923680748002BBDE878
:10270000104008BF184600F0AFB86FF0770010BD5A
:1027100068040020C5260000D126000008B5064B3D
:102720001B683BB10020FEF739FC18B9BDE8084032
:10273000FEF726BC08BD00BF680400204FF08053A0
:10274000D3F83021511C09BF4FF07043D3F8343116
:1027500093F8E02FD3F8E83F08BFC3F30313062A2A
:1027600005D1033B042B04D8034AD05C70470020FA
:1027700070470120704700BF8C6D000038B54FF0E6
:1027800080440123C4F8083363600023C4F8003197
:10279000D4F8003142F21075D4F80C24D4F80C347B
:1027A000D20307D5DB0705D5012002F08FFE013DDE
:1027B000F2D138BDFFF7C2FF0028FAD0014B00224A
:1027C0005A71F6E77004002038B5084C25794DB9E8
:1027D000012320602371FFF7B1FF08B9002038BD45
:1027E0006571FBE76FF07700F9E700BF7004002028
:1027F0004FF080430022C3F80021D3F8002109499B
:1028000001221A60096811B1C3F804237047D3F894
:102810000021002AFBD00022C3F80021D3F80031A8
:10282000704700BF7004002010B54FF08043D3F80C
:102830000423D20715D5D3F8002192B10022C3F8A2
:1028400000210124D3F80021C3F80843FFF776FFE5
:10285000044B10B15A7922B95C71BDE810401B6875
:10286000184710BD70040020074A137943B90121AD
:10287000106011714FF080421846C2F81835704749
:102880006FF07700704700BF7804002010B54FF05C
:1028900080432C4CD3F81814D3F8182411F4803F3B
:1028A00037D002F00303012B03D00BB102F07AFE04
:1028B00000234FF08042C2F818350023C2F80431DB
:1028C000D2F804314FF08053D3F83021511C09BFA6
:1028D0004FF07043D3F8343193F8E02FD3F8E83F4A
:1028E00008BFC3F30313062A08D1033B042B02D805
:1028F000154AD35C13B18A2002F0E8FD4FF0804303
:1029000001229A60226872B9D3F80421002AFBD010
:1029100011E0D3F81424D207CAD5D3F81C249007A9
:10292000C4D422681AB10222C3F8042310BDD3F81C
:102930000421002AFBD00022C3F80421D3F804317B
:10294000F4E700BF78040020916D0000F8B54FF067
:102950008043194FD3F80443012504F01A040026DC
:1029600004B9F8BDB4FA84F0C0F11F00830003F588
:1029700080739BB203F1804305FA00F2196824EAE0
:1029800002040029ECD01E601B684FF08043012830
:10299000C3F808230CD1D3F81824D3F818249207CD
:1029A00006D10222C3F81805C3F804239860D7E7BC
:1029B0003B68C0B29847D3E7780400204FF08053BB
:1029C000D3F83021511C09BF4FF07043D3F8343194
:1029D00093F8E02FD3F8E83F08BFC3F30313062AA8
:1029E00005D1033B042B04D8034AD05C7047002078
:1029F00070470120704700BF966D000073B5CEB2DE
:102A000000EB46060446B38ADB070D4625D502F0E7
:102A1000C4FEB38A9A0608D55A0B236803EB8203D7
:102A20000022C3F81025C3F81025204629460024AB
:102A300002F052FEB48201A8019502F0CEFD019B86
:102A400000EB8300064BD0F80027134043F002034D
:102A5000C0F80037204602B070BD6FF01500FAE7ED
:102A6000F0F8FCFF014802F051BD00BFD800002083
:102A700010B504480C4602F02BFD0028A4BF2070BE
:102A8000002010BDD8000020CB7B10B433B9D1E9B1
:102A900000420368C3F80845C3F80C2503688A6838
:102AA000C3F8242503793C225343054AD3582BB15C
:102AB000006810BC40F30730FEF762BA10BC7047E4
:102AC0008004002013B5394B01930023C0F8043172
:102AD000D0F80421C0F82431D0F82421C0F81C31EA
:102AE000D0F81C21C0F80831D0F80821C0F8003215
:102AF0004B6381F82F300123036291F82D209A4215
:102B000018BF83604B6B8A6A934204460ED24A6AAE
:102B1000D35CC0F81C350B6803B340F286238B608E
:102B20008B68C4F80433002002B010BD91F82C303B
:102B300013B10123C361EEE70B6A13F0400F4FF0AE
:102B4000010316BFC361436181F82D30E3E72046DE
:102B500003F077F828B1019B013B0193019B002B07
:102B6000F5DC91F82F0058B9019B002BDCDC002329
:102B7000C4F800350523C4F800356FF08B00D3E7A7
:102B8000D4F8C434C4F8C43463B19A075ABF03F00C
:102B900001008C386FF0040013F0040F18BF6FF0C1
:102BA0000A00E1E76FF08B00DEE700BFA0860100BE
:102BB00013B5314B01930023C0F80431D0F8042140
:102BC000C0F82431D0F82421C0F81C31D0F81C21E1
:102BD000C0F80831D0F808214B6381F82F308B6A98
:102BE000012B044617D10B6A580614D40223C4F8EB
:102BF00000320123236291F82D20022A18BF23609E
:102C00000B688BB140F286238B608B68C4F8043369
:102C1000002002B010BD0123E9E7204603F011F8BF
:102C200028B1019B013B0193019B002BF5DC91F83E
:102C30002F0058B9019B002BEBDC0023C4F80035B2
:102C40000523C4F800356FF08B00E2E7D4F8C434F4
:102C5000C4F8C43463B19A075ABF03F001008C383A
:102C60006FF0040013F0040F18BF6FF00A00E1E7E3
:102C70006FF08B00DEE700BFA0860100F8B5067993
:102C80002A4D4FF03C0C0CFB06FC05EB0C0494F8B1
:102C90002E70002F3DD1A76045F80C20636084F8AA
:102CA0002D7084F8317084F8307051B34B7B84F808
:102CB00038308F7B84F839700FBB0A6802F01F032D
:102CC000520929D19B0003F1A043DFF864C0D3F877
:102CD000004740F20C6704EA0C043C43C3F8004789
:102CE0004C6804F01F0364091BD19B0003F1A0434F
:102CF000D3F8002702EA0C023A43C3F80027FFF793
:102D0000C3FE3C2303FB0655012385F82E3000202B
:102D1000F8BD6FF07700FBE703F5E07357F8233059
:102D2000FFDE03F5E07352F82330F9E7800400205A
:102D3000F0F8FCFF036802790521C3F80015044B85
:102D40003C2101FB0233022283F82E20704700BF92
:102D50008004002003680B4A0179C3F80823D3F8E4
:102D6000002222F00302C3F800220022C3F800254B
:102D7000054B3C2000FB0133012183F82E1083F822
:102D80003020704786420400800400202DE9F0477F
:102D9000DFF8CC800779D0F800A03C2303FB078341
:102DA000C7EB071993F82D30012B0C46164608EB9C
:102DB000890905D10B78012B07D16FF0760012E05D
:102DC000022B02D10B78012BF7D13C25254BCAF8F9
:102DD000083305FB078595F8303033B1AB68CAF886
:102DE00004336FF00F00BDE8F08786F00403C3F3EF
:102DF000800385F830302E62A646BEE80F0005F14C
:102E00000C0CACE80F00DEF80030CCF80030636842
:102E1000AB62E3686B626378CAF888352378012B6C
:102E200018D0ABB9C6F340163C2303FB07834946D1
:102E3000504683F82C60FFF745FE3C235F4308EBC8
:102E4000070258F80730002BCDD182F83030CAE79E
:102E50000126E9E749465046FFF7AAFEEDE700BF25
:102E60008004002086420400F0B5324C324887B01E
:102E7000214602F0E6FE002859D194F82F70FFB9E0
:102E8000227B931E012B1BD8606AA369984217D13D
:102E9000E36963626369A362236A274884F82D703B
:102EA000C3F34013032A84F82C3004D107B0BDE8E3
:102EB000F040FFF707BE07B0BDE8F040FFF778BE6F
:102EC0001E4E0FCE01AD0FC533682B6047B31A4AB3
:102ED000D2F8C434C2F8C43413F0020106D001237E
:102EE0008DF80030002384F8303007E013F004023E
:102EF00009D002238DF8003084F83010D4E9003175
:102F00006846984713E013F0010305D003238DF8BA
:102F1000003084F83020F1E704228DF80020E2E749
:102F2000236A8DF800705B0784F83070E6D507B02F
:102F3000F0BD00BF80040020003000408C04002061
:102F4000F7B5064602F01FFF084602F01CFF01A875
:102F5000019602F00EFF019B2F4D00EB83000C4603
:102F6000D0F80037019440F20D612B400B43C0F8BC
:102F7000003701A802F0FDFE019B00EB8300012752
:102F8000D0F800372B400B43C0F80037042002F084
:102F90009DFA092501A8019402F0EBFE019AD0F8F0
:102FA0001035D340DB0715D401A8019602F0E1FEED
:102FB000019B07FA03F3C0F80C35042002F086FAEF
:102FC000304602F0E0FE013D042002F07FFA15F0E9
:102FD000FF05DFD101A8019402F0CBFE019A012385
:102FE0009340C0F80C35042002F070FA204602F03D
:102FF000CAFE042002F06AFA01A8019402F0B9FEA8
:10300000019AD0F81035D34013F0010F0CBF6FF0C8
:103010008B00002003B0F0BDF0F8FCFF10B5452197
:103020000446034801F079FB204602F0E0FE00BFB1
:103030009B6D0000F7B504460D46EFF31187202382
:1030400083F31288BFF36F8F1A4A042898BF1A4B74
:103050009668127C94BF53F82030184B009245219B
:103060000246174801F059FB3DB1EB69C3F3080371
:103070001BB11448452101F050FB36B1304602F037
:10308000CFFE034608B1027802B90F4B0F48324613
:10309000452101F042FB29462046FFF7BFFF87F399
:1030A0001188BFF36F8F304603B0BDE8F040FDF7E5
:1030B0000FBF00BFBC0400208C650000AF6D000096
:1030C000C56D0000F26D0000BD6D0000186E0000BF
:1030D00038B50A4B53F82040013053F82050A54230
:1030E00000D838BD606830B1037FDB0701D402F03F
:1030F0005BFE0834F3E723689847FAE7A065000011
:1031000070B52A4B2A4C2B4D012286B003201A7031
:10311000FFF7DEFFFDF7A6FB0420FFF7D9FF2646E9
:10312000AE4204F1300410D300F0BCFA204C224E21
:10313000AC4226D300F0CAFAFDF742F91F4A137BCE
:1031400023F00103137306B070BD54F80C3C0593D3
:1031500054F8103C049354F8143C039354F8183C6E
:10316000029354F81C3C019354F8203C009354E91A
:103170000A2354E90C0100F01BF954F8303C5E6559
:10318000CDE7D4E90A23B3F1FF3F08BFB2F1FF3F17
:1031900005D052EA0301206803D100F053FB30341C
:1031A000C6E73146183000F0CBFCF8E703050020F5
:1031B000A8630000A8630000135F000098020020CD
:1031C00070B5002386B00122CDE90423134E144DBF
:1031D00001930F22CDE902321249142303FB00555B
:1031E00006EBC01604464FF4C07000FB04110E4BF2
:1031F00000954FF4A072304600F0DAF8737B0B4A6A
:10320000EE6023F0040373734FF4046304FB033391
:1032100013442C746B6006B070BD00BF1802002010
:10322000BC040020800D0020FF5D00004005002050
:10323000BFB50020FFF74CFF284B83F30888284CCC
:10324000284F636943F4007363610025E02384F829
:103250002230E57725766576A57684F82050636A76
:1032600043F4E023636284F82350FDF7ADFDFDF7DE
:103270002DFF4FF0FF33A362E362FDF7FBFFFDF785
:1032800049FF1948194C00F0DFF80120FFF720FF33
:103290000220FFF71DFF00F04DFA154B15495C6148
:1032A000154B05930123CDE903534FF480623B4650
:1032B000CDE901550095204600F07AF8627B06467C
:1032C00022F004022046627302F0E6FD2846FFF772
:1032D00077FF3A4631462046FDF7DAFE800D0020A2
:1032E00000ED00E0013100001803002098020020EA
:1032F000BC040020000F00207F6E000070B5EFF3CB
:103300001186202383F31288BFF36F8F0468A042D5
:103310001AD0CCB1D4E9003213605A60637B002527
:1033200023F002036373C4E90055A56004F118009B
:1033300002F047FE2046A56702F0AEFD3146084880
:10334000BDE8704000F088B9D0E902329A4218BF57
:103350000133836086F31188BFF36F8F70BD00BFA8
:103360000405002013B5EFF31181202484F31288A3
:10337000BFF36F8F846844B1013C846081F311888E
:10338000BFF36F8F002002B010BD52EA030406D1D4
:1033900081F31188BFF36F8F6FF00F00F3E7CDE972
:1033A00000230246014800F035F9ECE7040500204F
:1033B0002DE9F043073285B022F007020E461F4682
:1033C0001099017300F158037F32C0E916330446A7
:1033D000002322F03F020421836041733F2A0F98AB
:1033E000A073C4E90633E37306F14009A2F1400873
:1033F00005D883F31188BFF36F8F084602DFB51835
:1034000029462046FDF7A0FA07300E9B20F0070062
:10341000A066C4E9189802930D9B01932D1A0C9B8A
:1034200000932A463B4631462046FDF7FFFD002328
:103430006365044B9B6803B1DB6EE366284605B009
:10344000BDE8F083BC04002040F201138381002317
:10345000C0E91833C366014B98607047BC04002074
:10346000094A93686FF00A019967084958674B68E1
:1034700043F080534B60002383F31188BFF36F8FB9
:103480009368986F704700BFBC04002000ED00E017
:1034900070B590F90D20437B002A36DBD90634D174
:1034A0001B4C63F07F032246437352F8183FE169D7
:1034B000934207D1C0E900210860E06111E0994220
:1034C000F8D01B68002BF5D090F90E5093F90E60E0
:1034D000B542F4D0AE42F2DD5968C0E9003108606F
:1034E0005860A569954200D005B9E568A3685A7B84
:1034F000D20604D1DA897F2A01D9AA6932B1AB4256
:1035000002D0284600F096FA656170BD6361FCE761
:10351000BC04002038B590F90D20437B002A0146F9
:1035200004DA03F07F03437302F07CFC0D4D2A465E
:10353000AB6852F8184F944200D004B9EC688B4243
:1035400007D05A7BD20604D1DA897F2A01D9A26931
:103550002AB1A34202D0204600F06CFA23466B61E8
:1035600038BD00BFBC040020B3F1FF3F08BFB2F17B
:10357000FF3F03D00249183000F0E2BA704700BFA5
:10358000135F000070B590F90D20437B002A0146BF
:1035900004DA03F07F03437302F044FC4B7B1C4CC2
:1035A00063F07F0322464B7352F8183FE069934261
:1035B00007D1C1E900200160E16111E09842F8D033
:1035C0001B68002BF5D091F90E5093F90E60B542AF
:1035D000F4D0AE42F2DD5868C1E9003001605960B4
:1035E000A569A368954200D005B9E5688B4207D06C
:1035F0005A7BD20604D1DA897F2A01D9AA692AB175
:10360000AB4202D0284600F015FA2B46636170BD2C
:10361000BC040020F8B50E4B0C4611460D4A9868C4
:103620001060DDE90667EFF31182202282F3128831
:10363000BFF36F8F9D68284602F006FC284632468D
:103640003B46FFF791FF2046BDE8F840FFF708BF73
:10365000BC040020DC04002049B9EFF3058030B938
:10366000054B5A699B689A4201D0FFF7F9BE81F376
:103670001188BFF36F8F7047BC040020034648B920
:10368000EFF3058232B9064A51699268914201D03E
:10369000FFF7E6BE83F31188BFF36F8F704700BF5B
:1036A000BC040020EFF31181202383F31288BFF3C1
:1036B0006F8F054B9A68D37B013BD37381F31188DD
:1036C000BFF36F8F704700BFBC04002070B5EFF3ED
:1036D0001186202383F31288BFF36F8F144DAB68DC
:1036E000DA7B0132DA732A4652F8184F944200D03E
:1036F00004B9EC685A7BD20604D1DA897F2A01D951
:10370000A2692AB1A34202D0204600F093F92346D1
:103710006B6186F31188BFF36F8FEFF31180202365
:1037200083F31288BFF36F8FBDE87040FFF7A6BF29
:10373000BC040020024B03F11802C3E906227047C3
:10374000BC04002070B5EFF31186202383F31288A8
:10375000BFF36F8F1B4CA168E0690B68814214BFF7
:103760001A46002249680B605960A368E1692AB9CA
:10377000154AC3E900210B60E3610CE093F90E00E8
:1037800092F90E50A84218D0854216DD5168C3E95F
:1037900000210B605360A5690B4B9D4200D005B919
:1037A000E568A3689D4202D0284600F043F96561B0
:1037B0003046BDE87040FFF753BE8A42D8D0126849
:1037C000D5E700BFBC040020D4040020F8B550EABF
:1037D000010306460C4603D1FFF7B4FF0020F8BDF5
:1037E000EFF31187202383F31288BFF36F8F124DFD
:1037F000124BA8681860FFF78DFEA8681049234691
:103800003246183000F09CF9AA68537B43F0040359
:10381000537304463846FFF723FEAB68D3E90A2307
:10382000B3F1004F08BF002AD8D102F0F2FB201AF2
:1038300020EAE070D3E700BFBC040020DC040020D5
:10384000135F000038B50446EFF31185202383F39E
:103850001288BFF36F8F437B5B070FD5183002F0E0
:10386000B0FB637B23F0040320466373FFF710FE75
:1038700029460548BDE83840FFF7EEBE85F31188BC
:10388000BFF36F8F38BD00BF04050020014B98685F
:10389000704700BFBC0400202DE9F8430446077BB5
:1038A000EFF31185202383F31288BFF36F8F437BDF
:1038B000190705D585F31188BFF36F8FBDE8F8832D
:1038C000D90943F008025DD14273A36813B12046C1
:1038D00002F0B0FA04F1180002F073FBA66D04F1D7
:1038E0005808B04511D04FF0000976B1304602F0CB
:1038F000A1FA06F1180002F064FBC6F87890304691
:10390000FFF7C6FDA66DB045EFD1DFF8C080D8F84F
:1039100008309C423ED1EFF30589B9F1000918BF88
:103920004FF00109D8F81860294A964200D00EB924
:10393000D8F80C60B34202D0304600F07BF8204645
:10394000C8F8146000F009FFB9F1000F02D0214857
:10395000FFF77AFDD8F808309C4231D1EFF30583A8
:1039600073BB227BD20718D42846FFF779FDFB07EB
:10397000A4D5002383F31188BFF36F8F0423184667
:1039800002DF9BE703F07F0343F00803437302F079
:1039900049FA9AE74FF00009C4E785F31188BFF3AD
:1039A0006F8F83F31188BFF36F8F0423184602DFF4
:1039B000EFF31180202383F31288BFF36F8FD4E7D6
:1039C00085F31188BFF36F8FD1E700BFBC040020DF
:1039D000D404002018030020044BC01A044BC0106C
:1039E0005843044B01221A54704700BF980300202B
:1039F000ABAAAAAA04050020C3897F2B12D80A4BC0
:103A00001B6863B1094B90F90E201B689A4209DBD1
:103A1000437BDB0606D1064BC31A18BF012303F014
:103A2000010070470023FAE7DC000020E0040020DA
:103A30001802002070B50E4B0E4C1E7C06EB4603A0
:103A400004EBC3040546204602F0BBFA0A4B0022F1
:103A500028469A55FFF7D0FF48B1084B08491A6825
:103A6000013A2046D317BDE8704000F069B870BD38
:103A7000BC0400209803002004050020DC00002086
:103A8000D939000038B5EFF31185202383F312886C
:103A9000BFF36F8F104B114A9C681068A04206D18B
:103AA000FFF7C8FF85F31188BFF36F8F38BD002182
:103AB0001B7C11600A4AD35C002BF3D02046FFF731
:103AC0009BFF0028EED0637BDB0602D12046FFF788
:103AD00059FD2046E4E700BFBC040020DC040020C0
:103AE00004050020024B1868984208BF0020704768
:103AF000E0000020034B1B680BB9FEF765BC0020FB
:103B0000704700BFE404002030B570B10B4B5B6818
:103B100098420AD0036843B1D3E90421D0E90445AF
:103B2000121941EB0501C3E90421D0E90032136009
:103B30005A600023C0E9003330BD00BFE000002020
:103B4000B3F1FF3F08BFB2F1FF3F2DE9F84F044644
:103B5000994615461F467AD08160EFF311882023DD
:103B600083F31288BFF36F8FB9F1000FDFF8E4A081
:103B700020DBFFF7BFFFDAE90027013549F1000933
:103B80002D1849EBE073C4E90453AD18064643EB26
:103B900007074FF00109FFF7A5FFDFF8BCE0DEF8EB
:103BA00004A00346EBB9C4E900EACAF80040CEF825
:103BB000044028E0DAE900126FF001035B1A4FF0CD
:103BC000FF3161EB02025B1B62EB0902012B72F118
:103BD0000001BCBF01230022C0E904324FF00009FC
:103BE000D9E7D3E9041CD4E904208A4270EB0C0B1A
:103BF00024DA891A5A686CEB0000C3E90410C4E99E
:103C0000003214605C60FFF76DFF84420ED1134BED
:103C10001B685BB9B9F1000F02D1FFF76BFF0646D5
:103C2000304602F0B7F90021FEF79CFB88F31188BB
:103C3000BFF36F8F28463946BDE8F88F521A60EB04
:103C40000C009A45C4E90420ADD01B68AAE7002502
:103C50002F46EFE7B0030020E0000020E40400203E
:103C60002DE9F047EFF31185202383F31288BFF38A
:103C70006F8FDFF8A490DFF8A480C9F80000FFF789
:103C800031FF00260027D9F80030D8E900ECD91719
:103C900050B1D0E90442A34271EB020A1CDAE41AE3
:103CA00062EB0102C0E9044213EB0E034FF0000483
:103CB0004CEB01012046C8E90031C9F8004002F090
:103CC00069F92146FEF74EFB85F31188BFF36F8F2C
:103CD000BDE8F047FFF7D6BE14EB0E024CEBE473E1
:103CE000C0E90467C8E90023FFF70EFF85F31188D8
:103CF000BFF36F8F83689847EFF31185202383F319
:103D00001288BFF36F8FD9F800301B1BC9F8003041
:103D1000FFF7E8FEB7E700BFE4040020B00300208F
:103D200010B5EFF31184202383F31288BFF36F8F54
:103D3000FFF7E0FE054A0346D2E90001181841EBFF
:103D4000E37184F31188BFF36F8F10BDB0030020BF
:103D5000F8B50546EFF31187202383F31288BFF3EC
:103D60006F8F036823B187F31188BFF36F8FF8BD9E
:103D7000D0E90A46611C46F10002022972F10002F4
:103D800036D3012C76F10002BCBF01241E46013C53
:103D900046F1FF3602F041F9013041F1000100190E
:103DA00046EB0101012871F1000130DB02F035F929
:103DB000013041F100016FF00203001946EB0101EF
:103DC00083426FF000438B4126DB02F026F901307D
:103DD00041F100016FF00102001946EB0103121AD4
:103DE0004FF0FF3161EB03031C492846FFF7A8FEA3
:103DF0002B6B01332B632B6A93B93C462B4653F84C
:103E0000185F9D4200D0D5B984F31188ADE76FF0FB
:103E100001024FF0FF33E7E700224FF00043E3E7F2
:103E200087F31188BFF36F8F2B6A28469847EFF30B
:103E30001184202383F31288BFF36F8FDEE72846B7
:103E400002F039F80023AB6784F31188BFF36F8F5A
:103E50002846BDE8F84002F01FB800BF513D000001
:103E60002DE9F04105461C4690461F46EFF31186AA
:103E7000202383F31288BFF36F8FB4F1FF3F08BF95
:103E8000B2F1FF3F05D186F31188BFF36F8FBDE814
:103E9000F081002C09DB012A74F10003BCBF012270
:103EA000002412F1FF3844F1FF37284602F089F868
:103EB000DDE906010023C5E90A012B6342463B46C2
:103EC00028460249FFF73CFEDDE700BF513D0000F8
:103ED0002DE9F04F8DB043680293837815469A0719
:103EE000804640F10D8100240E78002E00F00A81FA
:103EF000252E0BD04B1C03930134029B41463046C8
:103F000098470028C0F2F6800399EDE74E788B1CA5
:103F1000252E0393F0D00027B946BB46BBF11F0FF7
:103F200038D8A6F12003102B0AD8DFE803F02A09BD
:103F300009300909092109090928092D09091F0062
:103F4000A6F13003092B33D92A2E37D11BF0400FAD
:103F500055F8043B40F08280002BA7BF4BF0200BAC
:103F60009946C3F100094BF0280B01E04BF0010B1F
:103F7000039B13F8016B0393002ECFD130E04BF07D
:103F8000020B4BF0040BF3E74BF0080BF0E74BF0A0
:103F9000100BEDE7BBF17F0F19D8A6F13003092B09
:103FA000D2D81BF0400F03D00A2101FB0737DFE70F
:103FB0000A2101FB09394BF0200BD9E72E2E06D13F
:103FC0001BF0400F40F09E804BF0400BD0E76C2E72
:103FD00031D02BD8682E36D06A2E3CD04C2E3AD019
:103FE000002F46F02003B8BF2BF04002A3F165017B
:103FF000BCBF1FFA82FB0027022901D9612B2FD1F8
:10400000073525F00705DFF8ACA2083507271BF0B8
:10401000080F66D00AEB070B56465E4563D1A4EB4A
:104020000A0A06EB0A02A9EB07096FE1742E9FD07A
:104030007A2E9DD0D4E71BF0800F18BF4BF4007B85
:104040004BF0800B94E71BF4807F18BF4BF4007B90
:104050004BF4807B8CE74BF4207B89E71F4687E796
:10406000A6F16301122900F2F080DFE811F01300DD
:104070004F00EE00EE00EE00EE004F00EE00EE000E
:10408000EE00EE00EE00FE00E900EE00EE001B0088
:10409000EE00AF0055F8043B8DF8183001270DF104
:1040A000180AB4E755F804AB834BBAF1000F08BF08
:1040B0009A461BF0400F14BF39464FF0FF3150466F
:1040C00002F005F80746A2E7029B414620209847E8
:1040D00000280FDB013EB742F6D34C44A41BB14687
:1040E00098E74E46F7E716F8010B029B41469847C2
:1040F000002892DA98F8023043F0040388F802307E
:104100004FF0FF3420460DB0BDE8F08F1BF0800F5C
:1041100034D01BF4007F2CD0073525F00705AA46C4
:1041200069685AF8080B2BF010050029ADB237DA90
:10413000404261EB410145F480650DF1180B0A2303
:104140005A4601F0D0FFA0EB0B0301936B0662D53A
:10415000019B25F001019F4289B240F3A180002E0E
:1041600000F0998015F0100240F09C80BB460D468F
:1041700023E0AA465AF8040BC117D4E7AA461BF459
:10418000807F5AF8041B01D10846F5E71BF4007F35
:1041900015BF48B208B241F3C01141F3C031C2E7C4
:1041A00050EA0103C9D11BF0400FC6D0002FC4D183
:1041B0002BF0110295B2BB46019740F2064115EA79
:1041C00001021CBF0BF1010B00222CE02BF01002AE
:1041D0001FFA82FB0A231BF0800C49D01BF40071EC
:1041E0001DBF073525F00705AA46AA461ABF5AF88B
:1041F000080B69685AF8040B50EA010545D12BF009
:1042000016051BF0400FADB242D0002F40D12BF06D
:10421000170295B2019715F0100248D0019B002EAD
:1042200042D103F1010B29075AD4EB0706D5D94532
:104230006FDD0199A9EB0B035F18CB465B4649E0A4
:104240004BF0100B10237826C5E7782B04D1C6F16C
:10425000780343F01003BEE7029B414625209847B0
:104260000028FFF647AF023447E608230026B2E7EE
:10427000AA461BF480715AF8040BBDD01BF40071E0
:104280001ABFC0B2614680B2B6E72BF0060295B203
:104290000DF1180B54E725F01105ADB2BB468CE7C4
:1042A0000D46B8E73B460D4603F1020BBBE7DDF8D0
:1042B00004B082E78E6E0000876E0000CDE9043204
:1042C0004146029B202098470028FFF613AF049B2D
:1042D000059A01339945F1DCA4EB0B01CC189B4600
:1042E0000AB3029B4146302098470028FFF602AFF0
:1042F0008EB901342744019B391B994224DC1D46A9
:104300005DBB019AA9EB0B09224455461446914422
:1043100035E0019F92E7023441463046029B9847C0
:104320000028E7DAE6E640F206410D42E2D015F059
:10433000020F14BF2B20202015F4806F04F101041C
:10434000414618BF2D20E9E7029B4146302098479F
:10435000002804F10104CEDACCE606AB013D41466B
:10436000585D029B98470028CADAC3E6029B414683
:1043700020209847002804F10104FFF6BBAEA9EB0A
:104380000403002BF2DCBFE57047836800EBC1013A
:10439000B3F5004F2CBF51F8220031F812007047DE
:1043A00000EBC1018068B0F5004F2CBF41F822300E
:1043B00021F81230704708B50122FFF7E6FFD04020
:1043C00008BD8368B3F5004F00EBC10108D34B680B
:1043D0001AB143F001034B60704723F00103FAE781
:1043E0004B881AB143F001034B80704723F001035F
:1043F000FAE753000122FFF7D3BF8368B3F5004FFC
:1044000034BF04230823481C0833A0EBD300B0FAC0
:1044100080F0C0F11F0070472DE9F0410D4686681D
:104420000446FFF7C8FFB6F5004F014601D3012847
:1044300032D02046FFF7E1FF04EB80010E6996B908
:10444000E368012282401343E36002220D612B46A0
:1044500029462046FFF7A4FF032229462046BDE84F
:10446000F041FFF79DBF022231462046FFF78DFF46
:104470002946034607462046FFF792FF03223346AC
:1044800029462046FFF78CFF39462B462046FFF78A
:1044900087FF02223146E1E7BDE8F081B2F5802FC7
:1044A0002CBF08230423D21A2DE9F0418C18CD1D0E
:1044B00025F0070524F00704641B0026E4080560C6
:1044C0002146AC60EE602846FFF797FF421D920040
:1044D000013002F107074FEAD707A2F11002314677
:1044E000B8BF324605F1100001F0E9FD3A46314609
:1044F0002846FFF77EFF3346324631462846FFF70F
:104500004FFFA4EB0708284631460122FFF759FF69
:1045100042463946FFF76DFF3B463246394628464C
:10452000FFF73EFF21462846FFF763FF434632462A
:1045300021462846FFF734FF214628460122FFF78F
:1045400040FF3946BDE8F041FFF766BF00207047E5
:104550000FB407B504A951F8040B0191FBF7DCFF78
:1045600003B05DF804EB04B07047038B13F007034E
:1045700005D10368002B0CBF002003207047022BDD
:1045800005D1408BB0FA80F0400980007047012BC4
:1045900005D10368002B0CBF0020052070470020C8
:1045A000704710B50C4600B111B96FF0150010BD81
:1045B000081D00F093F80028F9D1A368032BF6D961
:1045C000F3E72DE9F0410D4607461946281D9046B0
:1045D0001E4600F094F8044638B133464246294658
:1045E0003846A446BDE8F0416047BDE8F08110B40C
:1045F000EFF31182202484F31288BFF36F8F41619F
:1046000010BC0121FBF7BABF38B50C46054658B1BE
:1046100051B10B6843B14B6833B11C22002101F04A
:104620004EFD2C61002038BD6FF01500FBE770B522
:1046300005460E46FFF7B5FF041E14DBEFF31182AB
:10464000202383F31288BFF36F8F6B8B2C8B4FF675
:10465000FF718B4204F0070407D182F31188BFF386
:104660006F8F6FF00A04204670BD022C0CD101330D
:104670006B8382F31188BFF36F8F0023224631468C
:104680002846FFF79EFFEEE7062C14D8DFE804F07B
:1046900004131313041A0400002333606B683BB93E
:1046A000C5E90066ACB902212846FBF767FFDAE7E7
:1046B0001E606E60F6E782F31188BFF36F8F6FF0B4
:1046C0000404D0E782F31188BFF36F8F6FF0850485
:1046D000C9E782F31188BFF36F8FC4E7034658B16F
:1046E000426802F00302012A03D0032A04D10268BF
:1046F00012B10020986070476FF015007047426853
:10470000816002F00302032A4FF0000203460CBF4F
:10471000006810465A60704770470FB407B504A987
:1047200051F8040B0191FBF7F7FE03B05DF804EBC1
:1047300004B0704701F0C3BC01F099BC01460068A9
:10474000FCF7C6B808B5FCF7FBF8BDE80840FCF775
:104750001BB900210120FCF7BBB86FF08500704742
:1047600061B662B680F31188BFF36F8F704772B67F
:10477000002383F31188BFF36F8FBFF34F8F30BFD8
:1047800062B6BFF36F8F704772B6002383F3118850
:10479000BFF36F8FBFF34F8F20BF80F31188BFF33C
:1047A0006F8F62B67047202809D9B0F1004F08D842
:1047B0000138B0FA80F0C0F11F00400070470820B7
:1047C00070473E20704708B5FCF712FE002008BD78
:1047D0000369C9B20C2201FB0233186C00F0070018
:1047E000704770B5C9B20369EFF31185202484F3D3
:1047F0001288BFF36F8F0C2606FB0134246C14F073
:10480000C00408D0A24206D085F31188BFF36F8F91
:104810004FF0FF3070BD71430B4401221A6485F3E1
:104820001188BFF36F8F43680B445B689847002083
:10483000F0E78022FFF7D5BFF8B5069F0469C9B23B
:10484000EFF31186202585F31288BFF36F8F0C25B7
:1048500069430C44256C05F0070CBCF1010F0BD12A
:10486000276486F31188BFF36F8FC4E90E23436872
:104870005B5898470020F8BD05F0C005AF4286F3AD
:104880001188BFF36F8F0CBF6FF077004FF0FF30D0
:10489000F1E713B580240094FFF7CEFF02B010BDFE
:1048A00010B40069CBB21C2403FB0400002110BC2F
:1048B00010471046FEF722BD00F08DBE43685B68CE
:1048C000D3F810350B600020704743685B6802EA3C
:1048D000010021EA0201C3F80805C3F80C15002005
:1048E000704743685B680020C3F808157047436849
:1048F0005B680020C3F80C15704743685A68D2F80B
:10490000043521EA03000B40C2F80805C2F80C3553
:104910000020704710B503695868F8B1884219D172
:104920009C6808685860A14200D198600020086027
:104930002AB15A680A609A68596002B999600020E1
:1049400010E0814206D10868206098688142EDD16C
:104950009C60EBE7044600680028F2D1002AE8D109
:104960006FF0150010BD01F0B3B82DE9F0434768B2
:1049700040F20636D0063B7C87B002EA060654BFFA
:10498000C2F3401C4FF0030C01F01F05B6F5837F06
:10499000144645EA43158DF803C043D00DD8062EC2
:1049A00016D005D8A6B1022E3ED06FF0150036E025
:1049B000B6F5807FF9D101260AE040F20222964244
:1049C00034D0B6F5407F33D0B6F5007FEDD1022666
:1049D0000123220303FA01F12CD57B68C3F80815E3
:1049E000B86868BB05F01F026D0972D1920002F130
:1049F000A04284F48031D2F80037C1F30041C4F3FF
:104A0000404423F4E16344EA410423F007031C43D8
:104A100044EA8C0444EA0624C2F80047002007B0A8
:104A2000BDE8F0830726D3E70426D1E70526CFE7C4
:104A30000326CDE7630344BF7B68C3F80C15CFE7BB
:104A40000DF10202294600F0CAFF14F4403F8046EF
:104A50000CD1B868294600F0F0FFB8F1000FDDD1A5
:104A60009DF80210B868FDF7FDFFD7E74FF0000989
:104A700001ABCDE90199CDE90439CDF80C90B868C6
:104A800003AA294600F0A6FE4845C7DB14F400330C
:104A900014D084F480349DF803308DF80E30C4F3C4
:104AA00000448DF80C608DF80D40B8684B4603AAA1
:104AB000294600F02AFF0028CFDAAFE7CDE904331A
:104AC0000DF103030393B86803AA294600F082FEA0
:104AD000F1E702F5E07250F82230FFDEF0B54468ED
:104AE0001646A068227C01F01F0587B045EA4215F2
:104AF000002865D0B6F5001F04D1294600F0E6FF76
:104B000000204EE001AA0020B6F5800F0190506011
:104B100036D1B3F1007F14BF052304238DF8043090
:104B20000023CDE904230393E36823FA01F111F094
:104B300001010DF1030736D1B6F1A07F33D105F0A5
:104B40001F036A0903F5E0733DD14FF0A04252F80C
:104B50002330DB0727D4A0683A46294600F03FFF00
:104B6000163018D00297A06803AA294600F032FE3A
:104B7000002816DBA0680122294600F060FFBFE78D
:104B8000B3F1C06F05D0B3F1007F14BF012302233E
:104B9000C4E70323C2E7A0683946FDF769FF002890
:104BA000E0DA07B0F0BDA0683A46294600F017FFEA
:104BB0000028D8D19DF80310A068FDF753FFD2E775
:104BC0006FF08500EDE751F82330FFDE37B504467E
:104BD000002201210320FCF7EFF96368DD6901AAD7
:104BE0000021284600F08AF800280DDB019B2A6886
:104BF00019791868FCF7B4FE002805DB204603B0DD
:104C0000BDE83040FCF742BE03B030BD02780B690E
:104C1000012A07D0022A08D052B95A6203F11400BF
:104C2000FEF76CBB6FF00402F7E76FF00A02F4E7DF
:104C30006FF08B02F1E72DE9F04FD0F81090D0F82B
:104C4000048085B005460C461746029309F1040A14
:104C50004FF0FF324FF0FF335046FEF783FB09F170
:104C6000140B002300225846FEF77CFB4046FEF75B
:104C700061F87B1E00260393B74201D8002322E08F
:104C8000039B217AB34283BF237D83F00403C3F3E4
:104C9000800300230193029B0093D4E9002328465C
:104CA000FCF728FE034670B94FF4804200235846B3
:104CB000FEF758FB98B14046FEF74CF8284600F046
:104CC00015F86FF0040340460293FEF743F8504690
:104CD000FEF714FB029B184605B0BDE8F08FD9F82B
:104CE00024300C34002BECD10136C5E743681B6837
:104CF000D3F80805D3F80C15FEF722B930B5436890
:104D00001360057A446804EBC504A34202D36FF034
:104D1000010030BD5C798C4201D00833F0E70020FF
:104D2000F7E743681B68D3F88004C3F88004704732
:104D300003691A6813680BB152681847704730B599
:104D400087B004460D461422002101A801F0B7F9EE
:104D500004230DEB030120468DF804300295FFF784
:104D6000E7FF07B030BD70B586B0066904460D4652
:104D70001422002101A801F0A2F902238DF80430C9
:104D800033681B6C029333689B6C01A92046CDE904
:104D90000335FFF7CDFF06B070BD30B503691C6861
:104DA00043681B68EFF31185202080F31288BFF35E
:104DB0006F8F206CA8B1E06CB0B9C4E91312042A5B
:104DC000C3F83415C3F8382582BFD3F8002242F067
:104DD0002002C3F80022002085F31188BFF36F8FF3
:104DE00030BD6FF00C00F7E76FF00F00F4E70369D8
:104DF000186820B101601B6800205A6070476FF08E
:104E00008500704710B5426800691368006860B992
:104E1000D3F8104164B1526A12780A70C3F81001D5
:104E2000D3F8102101221A6010BD6FF08500FBE756
:104E30004FF0FF30F8E770B503691D6843680E4610
:104E40001C6805F1080001F0F6F8EFF31182202349
:104E500083F31288BFF36F8FEB6C53B1D4F8003239
:104E600023F02003C4F800320023C4F84C31D4F8F6
:104E70004C31002385F8613001230EB185F8623092
:104E8000636082F31188BFF36F8F002070BD0369E8
:104E90001B681B6C13B10121FFF7CDBF6FF00D0034
:104EA000704710B503691968D1F8A420D1F8B04053
:104EB000121B13D0082A28BF08224068C1F8AC2072
:104EC00019688069C1F8A8001B68D3F8A010D3F84E
:104ED000B030194401F0CBF8012010BD1046FCE7BA
:104EE00002680346D2F8580140B95B68DB0706D474
:104EF000D2F82001003818BF012070470120704708
:104F000013B501AA0446FFF7F9FE002805DB019B53
:104F1000226819791868FCF723FD02B010BD10B49F
:104F200002694468936923EA0101916111F0030168
:104F300008D143681B68C3F80015E06810BC012164
:104F4000FFF7DEBF10BC704770B5036945681E6887
:104F500086B004461422002101A801F0B0F8052310
:104F60008DF80430002386F861306B685B070ED53E
:104F7000EFF31185202383F31288BFF36F8F022193
:104F80002046FFF7CCFF85F31188BFF36F8F01A98F
:104F90002046FFF7CDFE06B070BD6FF0850070476C
:104FA00010B5026993691943916113F0030107D1A8
:104FB00043681C68D868FFF7A3FF0823C4F80035CE
:104FC00010BD10B543681C68C4F84415C4F84825E2
:104FD0000022C4F82021D4F82011C4F858215B68BD
:104FE000D4F858215B0702D50121FFF7D9FF01232F
:104FF000A36010BD10B543681B684FF48002C3F86E
:10500000042304464068FFF76BFF0B6818B90122C0
:1050100083F8B82010BD002283F8B8200B684FF049
:10502000FF32C3F8B4200B682046D3E92A12BDE84A
:105030001040FFF7C6BF37B5426B536812691B6853
:105040001068D3F808217AB10022C3F80821D3F8F8
:1050500008314265D0E9162300240025CDE900453A
:105060000830FEF7FDFE06E0426D0132042A42657B
:10507000F0D101225A6003B030BD2DE9F04F4368F2
:1050800007691D68D7F80080D5F80463D5F80831A2
:1050900089B00446DBB1720719D50022C5F8082192
:1050A0004168D5F808310369D1F8009019684A655C
:1050B0001868D0E916234FF0000A4FF0000BCDE935
:1050C00000AB0830FEF7CCFE0423C9F80833D5F84E
:1050D000243163B3B3052AD50021C5F82411D5F8CE
:1050E00024316368D3F800A0DAF88094142203A86E
:1050F00000F0E5FF062319F0010F8DF80C3040F0A9
:10510000418119F0020F40F03F8119F0040F40F087
:105110003D8109F008038DF8103003A92046CAF834
:105120008094FFF705FE00212046FFF784FED5F8A6
:105130001031002B59D0F00657D54FF0000BC5F8B1
:1051400010B1D5F81031C5F810B1D5F81031236978
:10515000D3F800906368D3F800A009F1080000F0CC
:105160006AFF99F86010D9F84830DAF83C2589F8D8
:1051700060B0C91A1144594502DD2046FFF7F3FD1E
:10518000D9F840102046FFF7DAFDD9F84C30C9F8BD
:105190004030D9F85030C9F844300023C9E91333FE
:1051A000C9F8483099F86130FBB1EFF31182202340
:1051B00083F31288BFF36F8FD9F84030002B00F0D3
:1051C000E780DAF84C3133B90121CAF80010CAF887
:1051D0004431DAF84431DAF8003223F02003CAF817
:1051E000003282F31188BFF36F8F31031FD5D5F8DA
:1051F0004C31E3B1D5F81011C9B9C5F84C111422DE
:1052000003A8D5F84C3100F05AFF03238DF80C3079
:1052100023691A68D2E9163213431FBF63681B68FB
:105220000422C3F8042303A92046FFF781FDB2033B
:105230002AD5D5F844313BB3D5F810A1BAF1000F07
:1052400022D1C5F844A1D5F844312369D4F804B07B
:10525000D3F80090D9F8401021B12046FFF76FFD38
:10526000C9F840A099F86230002B00F09580002327
:1052700089F8623063681B680022C3F80821204661
:10528000D3F80831FFF760FEF00519D5D5F82031C5
:10529000B3B163681B68EFF31182202181F3128898
:1052A000BFF36F8FD3F8201131B10021C3F8201163
:1052B000D3F820110121D96082F31188BFF36F8FD9
:1052C00071023DD5D5F85831002B39D06368256976
:1052D000D3F80090EFF3118A202282F31288BFF3F3
:1052E0006F8F2A685B68D2F8B4100029ACBFD2F87F
:1052F000B460D9F84C655A0707D54FF48003C9F854
:10530000083301212046FFF70AFE8AF31188BFF314
:105310006F8F2B68D3F8A02092B193F8B8100029B2
:105320005ED0EFF31186202383F31288BFF36F8FD3
:1053300029462046FFF75EFE86F31188BFF36F8F84
:105340001837BFF35B8F57E8003F23F0040247E8AC
:1053500000210029F7D1BFF35B8F5B077DD5D8F81B
:1053600044102046FFF7FFFC2046D8F84010FFF716
:10537000E6FC00232046C8E9103309B0BDE8F04F31
:10538000FFF7E2BD0123C6E60223C4E60423C2E61A
:105390000123CAF8043024E7DBF804305B077FF50B
:1053A00069AF62681368D269C3F834250522C3F86F
:1053B00038250122DA62D3F81021002AFBD000211F
:1053C000C3F81011D3F81021D3F84C212AB1C3F837
:1053D0004C11D3F84C21D3F83C2589F8602049E7DB
:1053E000D3F8A8108A4210D0D3F8AC10D3F8B0206C
:1053F000B14232442FD1C3F8B0202046FFF751FD0F
:1054000000288ED12B68D3F8B0602868683000F08F
:1054100012FE1422002103A800F051FE2B68D3F8DD
:10542000A030CDE904362B68D3F8A4309E421CBFCF
:1054300001238DF80C304FF48003C9F808332A6833
:105440000023C2F8A0302A6803A9C2F8A43020467D
:10545000FFF76EFC74E71646D7E709B0BDE8F08F9A
:1054600038B54268036915681A68D2F8A01051B1BE
:10547000002482F8B8401868683000F0DCFD012391
:10548000EB60204638BD6FF00D00FBE7406BFFF787
:10549000E7BF00F150039B009BB203F1804303F58B
:1054A000883300221A601B6870474FF08053D3F88E
:1054B0003001421C04BF4FF0704393F8E00F831F8C
:1054C00058425841704703460020184700F068BC16
:1054D00010B502461168B1B1BFF35B8FB1FA81F329
:1054E000C3F11F000123834021EA030352E8004F68
:1054F0008C4204D142E8003CBCF1000FF6D1BFF36E
:105500005B8FE7D110BD6FF00B00FBE710B50368B0
:10551000CB40DB0714D401238B400268BFF35B8FC1
:1055200043EA020150E8004F944204D140E8001CD5
:10553000BCF1000FF6D1BFF35B8FEED1002010BDA0
:105540006FF01500FBE770B50C46002105460846D4
:105550001646FDF7A1F800280ADB3378DB0003F1DB
:10556000804303F5F8330020C3F81055C3F8144501
:1055700070BD10B1012802D07047FDF787B9FDF763
:1055800037B918B1012803D100F00AB800F023B8E8
:10559000704708B5FDF748F9BDE80840FDF7D6B9F2
:1055A000FDF7ECB838B54FF080440223C4F8083357
:1055B0000123E3600023C4F80431D4F8043142F23B
:1055C0001075D4F81834DB0304D50120FFF77EFFF3
:1055D000013DF6D138BDFFF7E5BF036803F01F02B8
:1055E0005B0902600CBF4FF0A04000207047F7B588
:1055F000019001A8DDE9084716461D46FFF7EDFFBB
:10560000019BB6F1000C18BF4FF0010C00EB8300BA
:105610000B1E18BF0123002D43EA4C0314BF4FF0AB
:105620000C0C4FF0000C002C43EA0C0314BF4FF499
:10563000E06C4FF0000C002F43EA0C03D0F8002779
:1056400014BF4FF4403C4FF0000C43EA0C0322EA35
:10565000030301B109780EB13678760019430DB114
:105660002D78AD0031430CB12478240229430FB1C9
:105670003F783F040C433C43C0F8004703B0F0BD03
:105680001FB50DF10F03019300238DF80F10009348
:105690001A461946FFF7ABFF05B05DF804FB70B57D
:1056A000CBB20833164630F81330DA0504460D46FF
:1056B00009D5C3F3432300EBC302314650F833301E
:1056C000526828469847A3682BB1E26831462846BD
:1056D000BDE87040184770BD10B4CBB200EB430377
:1056E0009A8AD1051BD5C2F3432122F4F8529A823B
:1056F00000F1520400F1120232F8023F13F4807FED
:1057000003D0C3F34323994209D0A242F4D100EB62
:10571000C10300225A6010BC5830FFF7F7BE10BC1E
:10572000704770B511F001040CD04FF0A046D6F8C8
:1057300020550560C6F82055FDF740F908B1D6F8A8
:10574000203505B90024204670BDF0B5034600F5AC
:105750008074002005460127844695420AD1D3F87B
:105760007C2132B10022C3F87C21D3F87C3140F097
:105770000040F0BD25F0404607FA06F6314209D058
:10578000D4F800E0BEF1000F04D0C4F800C0D4F893
:1057900000E0304301350434DFE70246CBB202EBD0
:1057A000430308469B8A990611D599070FD41068C0
:1057B0005B0B01219940C0F80813126802EB8303C8
:1057C000D3F8102522F00302C3F8102570470021FA
:1057D000FFF756BFF0B5136885B005460C46164670
:1057E000DBB1CFB200EB4707BA8A02F02202222ACD
:1057F0001ED00022CDE900228DF80E208DF80F205A
:105800000DF10E010DF10F022046FFF7F0FEBB8AED
:1058100023F0020343F00103BB82736823B31A78B9
:105820005868E3B205EB4303998A8F0703D5A8B103
:105830006FF015001BE021F4604121F020019982F6
:1058400060B1032AF4D8716848682968077801EBC9
:10585000870172B9C1F81025C1F81025998A21F085
:105860001C0141EA82029A82B3684BBB002005B05A
:10587000F0BDD1F8100520F00300C1F8100528682C
:1058800000EB8700D0F8101521F4473121F4407166
:10589000C0F810152102D0F810C501F4F85141EA02
:1058A000024141EA0C01C0F8101505EB4701A1F8CF
:1058B0005C40998A41EA473141F020019982CDE765
:1058C000D3E9006721462846FFF706FF002ECDD01A
:1058D0006B689E4206D005F15800FFF7F9FD0028DD
:1058E00004DAC4E7AB689F42F5D1002005EBC003A2
:1058F000C3E90167E4B205EB4404C0B2A38A43EAFA
:10590000402343F48073A382B0E7F0B5074685B027
:105910000C461D46F2B1CEB200EB4606B38A98079C
:1059200001D499061ED413F01C0F02D05378012B1A
:1059300018D001238DF80F300023CDE900230DF19D
:105940000F01931C20460132FFF751FEB38A43F04A
:105950000303B382002D3DD0E2B207EB4202938AEB
:105960009B0703D46FF0150005B0F0BD28783B68A5
:1059700003EB80030021C3F81015C3F81015938AB8
:1059800023F4604323F0200393826E784FEA800C67
:1059900006B33968AD7861443604D1F8103523F484
:1059A000981323F4F853C1F81035230203F4F85385
:1059B00006F440362D05D1F81075334305F48015F3
:1059C0002B433B43C1F81035938A43EA403343F0FD
:1059D000200393820020C7E7C0E903127047C9B2D1
:1059E00000EB4100838A990643BF5B0B00201370D4
:1059F0006FF01500704738B590F86C4005469CB9BB
:105A000040222146143000F05AFB2868C0F87C413F
:105A1000D0F87C3140F30730FBF7B2FA012385F868
:105A20006C30AB65204638BD6FF07700FBE790F82F
:105A30006C00003818BF01207047FCF7DFBF73B55A
:105A40000C46C9B200EB410105688B8A9E0619D548
:105A500013F0020616D15B0B9C0004F580716E50AA
:105A6000695801682144D1F8104544F00104C1F897
:105A700010452AB10168012202FA03F3C1F8043388
:105A800002B070BDD5F80433002BA4BF4FF0004323
:105A9000C5F804338B8AC3F38203042B12D0052B81
:105AA00012D001A80194FFF798FD019AD0F81035A3
:105AB000D34003F00103991C204602B0BDE87040BA
:105AC000FFF7DEBD0321F7E70221F5E7FFF765BE2B
:105AD0002DE9F04F074685B057F8049BD9F8041319
